{
  "_format": "hh-sol-artifact-1",
  "contractName": "StorageVictimAudited",
  "sourceName": "contracts/Audited.sol",
  "abi": [
    {
      "inputs": [],
      "name": "getStore",
      "outputs": [
        {
          "internalType": "address",
          "name": "",
          "type": "address"
        },
        {
          "internalType": "uint256",
          "name": "",
          "type": "uint256"
        }
      ],
      "stateMutability": "view",
      "type": "function"
    },
    {
      "inputs": [
        {
          "internalType": "uint256",
          "name": "_amount",
          "type": "uint256"
        }
      ],
      "name": "store",
      "outputs": [],
      "stateMutability": "nonpayable",
      "type": "function"
    }
  ],
  "bytecode": "0x608060405234801561001057600080fd5b506102e2806100206000396000f3fe608060405234801561001057600080fd5b50600436106100365760003560e01c80636057361d1461003b578063c2722ecc14610057575b600080fd5b61005560048036038101906100509190610206565b610076565b005b61005f610108565b60405161006d929190610283565b60405180910390f35b60008060003373ffffffffffffffffffffffffffffffffffffffff1673ffffffffffffffffffffffffffffffffffffffff1681526020019081526020016000209050338160000160006101000a81548173ffffffffffffffffffffffffffffffffffffffff021916908373ffffffffffffffffffffffffffffffffffffffff1602179055508181600101819055505050565b60008060008060003373ffffffffffffffffffffffffffffffffffffffff1673ffffffffffffffffffffffffffffffffffffffff1681526020019081526020016000206040518060400160405290816000820160009054906101000a900473ffffffffffffffffffffffffffffffffffffffff1673ffffffffffffffffffffffffffffffffffffffff1673ffffffffffffffffffffffffffffffffffffffff16815260200160018201548152505090508060000151816020015192509250509091565b600080fd5b6000819050919050565b6101e3816101d0565b81146101ee57600080fd5b50565b600081359050610200816101da565b92915050565b60006020828403121561021c5761021b6101cb565b5b600061022a848285016101f1565b91505092915050565b600073ffffffffffffffffffffffffffffffffffffffff82169050919050565b600061025e82610233565b9050919050565b61026e81610253565b82525050565b61027d816101d0565b82525050565b60006040820190506102986000830185610265565b6102a56020830184610274565b939250505056fea26469706673582212208e54643fb1a7068cd76f1b205a154aa5f85e24b11bc96ab66c3478c5bf0603ee64736f6c63430008130033",
  "linkReferences": {},
  "deployedLinkReferences": {}
}